{
  "_format": "hh-sol-artifact-1",
  "contractName": "DeMedia",
  "sourceName": "contracts/DeMedia.sol",
  "abi": [
    {
      "inputs": [
        {
          "internalType": "address",
          "name": "_verifierAddr",
          "type": "address"
        }
      ],
      "stateMutability": "nonpayable",
      "type": "constructor"
    },
    {
      "anonymous": false,
      "inputs": [
        {
          "indexed": true,
          "internalType": "address",
          "name": "_from",
          "type": "address"
        },
        {
          "indexed": true,
          "internalType": "uint256",
          "name": "_mediaIndex",
          "type": "uint256"
        }
      ],
      "name": "Answered",
      "type": "event"
    },
    {
      "anonymous": false,
      "inputs": [
        {
          "indexed": true,
          "internalType": "address",
          "name": "_from",
          "type": "address"
        },
        {
          "indexed": true,
          "internalType": "uint256",
          "name": "_mediaIndex",
          "type": "uint256"
        }
      ],
      "name": "Created",
      "type": "event"
    },
    {
      "inputs": [
        {
          "internalType": "string",
          "name": "description",
          "type": "string"
        },
        {
          "internalType": "bool",
          "name": "isPoll",
          "type": "bool"
        },
        {
          "internalType": "string[]",
          "name": "polls",
          "type": "string[]"
        },
        {
          "internalType": "uint256[2]",
          "name": "_pA",
          "type": "uint256[2]"
        },
        {
          "internalType": "uint256[2][2]",
          "name": "_pB",
          "type": "uint256[2][2]"
        },
        {
          "internalType": "uint256[2]",
          "name": "_pC",
          "type": "uint256[2]"
        },
        {
          "internalType": "uint256[34]",
          "name": "_pubSignals",
          "type": "uint256[34]"
        }
      ],
      "name": "addMedia",
      "outputs": [],
      "stateMutability": "nonpayable",
      "type": "function"
    },
    {
      "inputs": [],
      "name": "anonAadhaarVerifierAddr",
      "outputs": [
        {
          "internalType": "address",
          "name": "",
          "type": "address"
        }
      ],
      "stateMutability": "view",
      "type": "function"
    },
    {
      "inputs": [
        {
          "internalType": "uint256",
          "name": "mediaIndex",
          "type": "uint256"
        }
      ],
      "name": "getMedia",
      "outputs": [
        {
          "internalType": "string",
          "name": "",
          "type": "string"
        },
        {
          "internalType": "string[]",
          "name": "",
          "type": "string[]"
        },
        {
          "internalType": "uint256",
          "name": "",
          "type": "uint256"
        },
        {
          "internalType": "bool",
          "name": "",
          "type": "bool"
        },
        {
          "internalType": "string[]",
          "name": "",
          "type": "string[]"
        },
        {
          "internalType": "uint256[]",
          "name": "",
          "type": "uint256[]"
        },
        {
          "internalType": "uint256",
          "name": "",
          "type": "uint256"
        },
        {
          "internalType": "uint256",
          "name": "",
          "type": "uint256"
        },
        {
          "internalType": "uint256",
          "name": "",
          "type": "uint256"
        },
        {
          "internalType": "uint256",
          "name": "",
          "type": "uint256"
        }
      ],
      "stateMutability": "view",
      "type": "function"
    },
    {
      "inputs": [],
      "name": "getMediaCount",
      "outputs": [
        {
          "internalType": "uint256",
          "name": "",
          "type": "uint256"
        }
      ],
      "stateMutability": "view",
      "type": "function"
    },
    {
      "inputs": [],
      "name": "mediaCounter",
      "outputs": [
        {
          "internalType": "uint256",
          "name": "",
          "type": "uint256"
        }
      ],
      "stateMutability": "view",
      "type": "function"
    },
    {
      "inputs": [
        {
          "internalType": "uint256",
          "name": "mediaIndex",
          "type": "uint256"
        },
        {
          "internalType": "string",
          "name": "response",
          "type": "string"
        },
        {
          "internalType": "string",
          "name": "poll",
          "type": "string"
        },
        {
          "internalType": "uint256[2]",
          "name": "_pA",
          "type": "uint256[2]"
        },
        {
          "internalType": "uint256[2][2]",
          "name": "_pB",
          "type": "uint256[2][2]"
        },
        {
          "internalType": "uint256[2]",
          "name": "_pC",
          "type": "uint256[2]"
        },
        {
          "internalType": "uint256[34]",
          "name": "_pubSignals",
          "type": "uint256[34]"
        }
      ],
      "name": "responseOnMedia",
      "outputs": [],
      "stateMutability": "nonpayable",
      "type": "function"
    },
    {
      "inputs": [
        {
          "internalType": "uint256[2]",
          "name": "_pA",
          "type": "uint256[2]"
        },
        {
          "internalType": "uint256[2][2]",
          "name": "_pB",
          "type": "uint256[2][2]"
        },
        {
          "internalType": "uint256[2]",
          "name": "_pC",
          "type": "uint256[2]"
        },
        {
          "internalType": "uint256[34]",
          "name": "_pubSignals",
          "type": "uint256[34]"
        }
      ],
      "name": "verify",
      "outputs": [
        {
          "internalType": "bool",
          "name": "",
          "type": "bool"
        }
      ],
      "stateMutability": "view",
      "type": "function"
    }
  ],
  "bytecode": "0x60806040523480156200001157600080fd5b5060405162001d7238038062001d728339818101604052810190620000379190620000f0565b806000806101000a81548173ffffffffffffffffffffffffffffffffffffffff021916908373ffffffffffffffffffffffffffffffffffffffff16021790555060006001819055505062000122565b600080fd5b600073ffffffffffffffffffffffffffffffffffffffff82169050919050565b6000620000b8826200008b565b9050919050565b620000ca81620000ab565b8114620000d657600080fd5b50565b600081519050620000ea81620000bf565b92915050565b60006020828403121562000109576200010862000086565b5b60006200011984828501620000d9565b91505092915050565b611c4080620001326000396000f3fe608060405234801561001057600080fd5b506004361061007d5760003560e01c806355c338c51161005b57806355c338c5146100dc5780636d0ea222146100f8578063c912432314610114578063dfa2ed6a146101445761007d565b80630dbffbcd1461008257806329976be8146100a057806331440c30146100be575b600080fd5b61008a61017d565b6040516100979190610ca5565b60405180910390f35b6100a86101a1565b6040516100b59190610cd9565b60405180910390f35b6100c66101a7565b6040516100d39190610cd9565b60405180910390f35b6100f660048036038101906100f19190610e57565b6101b1565b005b610112600480360381019061010d9190610f68565b61031d565b005b61012e6004803603810190610129919061104d565b610801565b60405161013b91906110c5565b60405180910390f35b61015e600480360381019061015991906110e0565b6108ae565b6040516101749a99989796959493929190611367565b60405180910390f35b60008054906101000a900473ffffffffffffffffffffffffffffffffffffffff1681565b60015481565b6000600154905090565b6101bd84848484610801565b6101fc576040517f08c379a00000000000000000000000000000000000000000000000000000000081526004016101f39061146b565b60405180910390fd5b6001600081548092919061020f906114ba565b91905055508888600360006001548152602001908152602001600020600001918261023b929190611748565b5086156102cc5760005b868690508110156102ca5786868281811061026357610262611818565b5b90506020028101906102759190611856565b600360006001548152602001908152602001600020600801838154811061029f5761029e611818565b5b9060005260206000200191826102b6929190611748565b5080806102c2906114ba565b915050610245565b505b6001543373ffffffffffffffffffffffffffffffffffffffff167f0ce3610e89a4bb9ec9359763f99110ed52a4abaea0b62028a1637e242ca2768b60405160405180910390a3505050505050505050565b600154891115610362576040517f08c379a000000000000000000000000000000000000000000000000000000000815260040161035990611905565b60405180910390fd5b600460008a815260200190815260200160002060008260006022811061038b5761038a611818565b5b6020020135815260200190815260200160002060009054906101000a900460ff16156103ec576040517f08c379a00000000000000000000000000000000000000000000000000000000081526004016103e390611971565b60405180910390fd5b6103f884848484610801565b610437576040517f08c379a000000000000000000000000000000000000000000000000000000000815260040161042e9061146b565b60405180910390fd5b600360008a8152602001908152602001600020600601600081548092919061045e906114ba565b9190505550600360008a815260200190815260200160002060070160009054906101000a900460ff1615610579576000600190505b600360008b81526020019081526020016000206008018054905081116105735786866040516104c39291906119d0565b6040518091039020600360008c815260200190815260200160002060080182815481106104f3576104f2611818565b5b9060005260206000200160405161050a9190611a81565b60405180910390200361056057600360008b8152602001908152602001600020600901818154811061053f5761053e611818565b5b90600052602060002001600081548092919061055a906114ba565b91905055505b808061056b906114ba565b915050610493565b50610719565b6040518060400160405280600381526020017f79657300000000000000000000000000000000000000000000000000000000008152508051906020012088886040516105c69291906119d0565b60405180910390200361060457600360008a815260200190815260200160002060030160008154809291906105fa906114ba565b9190505550610718565b6040518060400160405280600281526020017f6e6f0000000000000000000000000000000000000000000000000000000000008152508051906020012088886040516106519291906119d0565b60405180910390200361068f57600360008a81526020019081526020016000206004016000815480929190610685906114ba565b9190505550610717565b6040518060400160405280600781526020017f6162737461696e000000000000000000000000000000000000000000000000008152508051906020012088886040516106dc9291906119d0565b60405180910390200361071657600360008a81526020019081526020016000206005016000815480929190610710906114ba565b91905055505b5b5b5b6001600460008b815260200190815260200160002060008360006022811061074457610743611818565b5b6020020135815260200190815260200160002060006101000a81548160ff021916908315150217905550600260008260006022811061078657610785611818565b5b6020020135815260200190815260200160002060000160008154809291906107ad906114ba565b9190505550883373ffffffffffffffffffffffffffffffffffffffff167f15ed2488ad15febdd998af0661945b84b4df9f0b7f44e62670f835cb61ac4fbc60405160405180910390a3505050505050505050565b60008060009054906101000a900473ffffffffffffffffffffffffffffffffffffffff1673ffffffffffffffffffffffffffffffffffffffff16638525a61d868686866040518563ffffffff1660e01b81526004016108639493929190611b81565b602060405180830381865afa158015610880573d6000803e3d6000fd5b505050506040513d601f19601f820116820180604052508101906108a49190611bdd565b9050949350505050565b6060806000806060806000806000806001548b1115610902576040517f08c379a00000000000000000000000000000000000000000000000000000000081526004016108f990611905565b60405180910390fd5b6000600360008d8152602001908152602001600020604051806101400160405290816000820180546109339061156b565b80601f016020809104026020016040519081016040528092919081815260200182805461095f9061156b565b80156109ac5780601f10610981576101008083540402835291602001916109ac565b820191906000526020600020905b81548152906001019060200180831161098f57829003601f168201915b5050505050815260200160018201805480602002602001604051908101604052809291908181526020016000905b82821015610a865783829060005260206000200180546109f99061156b565b80601f0160208091040260200160405190810160405280929190818152602001828054610a259061156b565b8015610a725780601f10610a4757610100808354040283529160200191610a72565b820191906000526020600020905b815481529060010190602001808311610a5557829003601f168201915b5050505050815260200190600101906109da565b50505050815260200160028201548152602001600382015481526020016004820154815260200160058201548152602001600682015481526020016007820160009054906101000a900460ff1615151515815260200160088201805480602002602001604051908101604052809291908181526020016000905b82821015610bac578382906000526020600020018054610b1f9061156b565b80601f0160208091040260200160405190810160405280929190818152602001828054610b4b9061156b565b8015610b985780601f10610b6d57610100808354040283529160200191610b98565b820191906000526020600020905b815481529060010190602001808311610b7b57829003601f168201915b505050505081526020019060010190610b00565b50505050815260200160098201805480602002602001604051908101604052809291908181526020018280548015610c0357602002820191906000526020600020905b815481526020019060010190808311610bef575b50505050508152505090508060000151816020015182604001518360e00151846101000151856101200151866060015187608001518860a001518960c001519a509a509a509a509a509a509a509a509a509a50509193959799509193959799565b600073ffffffffffffffffffffffffffffffffffffffff82169050919050565b6000610c8f82610c64565b9050919050565b610c9f81610c84565b82525050565b6000602082019050610cba6000830184610c96565b92915050565b6000819050919050565b610cd381610cc0565b82525050565b6000602082019050610cee6000830184610cca565b92915050565b600080fd5b600080fd5b600080fd5b600080fd5b600080fd5b60008083601f840112610d2357610d22610cfe565b5b8235905067ffffffffffffffff811115610d4057610d3f610d03565b5b602083019150836001820283011115610d5c57610d5b610d08565b5b9250929050565b60008115159050919050565b610d7881610d63565b8114610d8357600080fd5b50565b600081359050610d9581610d6f565b92915050565b60008083601f840112610db157610db0610cfe565b5b8235905067ffffffffffffffff811115610dce57610dcd610d03565b5b602083019150836020820283011115610dea57610de9610d08565b5b9250929050565b600081905082602060020282011115610e0d57610e0c610d08565b5b92915050565b600081905082604060020282011115610e2f57610e2e610d08565b5b92915050565b600081905082602060220282011115610e5157610e50610d08565b5b92915050565b60008060008060008060008060006105a08a8c031215610e7a57610e79610cf4565b5b60008a013567ffffffffffffffff811115610e9857610e97610cf9565b5b610ea48c828d01610d0d565b99509950506020610eb78c828d01610d86565b97505060408a013567ffffffffffffffff811115610ed857610ed7610cf9565b5b610ee48c828d01610d9b565b96509650506060610ef78c828d01610df1565b94505060a0610f088c828d01610e13565b935050610120610f1a8c828d01610df1565b925050610160610f2c8c828d01610e35565b9150509295985092959850929598565b610f4581610cc0565b8114610f5057600080fd5b50565b600081359050610f6281610f3c565b92915050565b60008060008060008060008060006105a08a8c031215610f8b57610f8a610cf4565b5b6000610f998c828d01610f53565b99505060208a013567ffffffffffffffff811115610fba57610fb9610cf9565b5b610fc68c828d01610d0d565b985098505060408a013567ffffffffffffffff811115610fe957610fe8610cf9565b5b610ff58c828d01610d0d565b965096505060606110088c828d01610df1565b94505060a06110198c828d01610e13565b93505061012061102b8c828d01610df1565b92505061016061103d8c828d01610e35565b9150509295985092959850929598565b600080600080610540858703121561106857611067610cf4565b5b600061107687828801610df1565b945050604061108787828801610e13565b93505060c061109887828801610df1565b9250506101006110aa87828801610e35565b91505092959194509250565b6110bf81610d63565b82525050565b60006020820190506110da60008301846110b6565b92915050565b6000602082840312156110f6576110f5610cf4565b5b600061110484828501610f53565b91505092915050565b600081519050919050565b600082825260208201905092915050565b60005b8381101561114757808201518184015260208101905061112c565b60008484015250505050565b6000601f19601f8301169050919050565b600061116f8261110d565b6111798185611118565b9350611189818560208601611129565b61119281611153565b840191505092915050565b600081519050919050565b600082825260208201905092915050565b6000819050602082019050919050565b600082825260208201905092915050565b60006111e58261110d565b6111ef81856111c9565b93506111ff818560208601611129565b61120881611153565b840191505092915050565b600061121f83836111da565b905092915050565b6000602082019050919050565b600061123f8261119d565b61124981856111a8565b93508360208202850161125b856111b9565b8060005b8581101561129757848403895281516112788582611213565b945061128383611227565b925060208a0199505060018101905061125f565b50829750879550505050505092915050565b600081519050919050565b600082825260208201905092915050565b6000819050602082019050919050565b6112de81610cc0565b82525050565b60006112f083836112d5565b60208301905092915050565b6000602082019050919050565b6000611314826112a9565b61131e81856112b4565b9350611329836112c5565b8060005b8381101561135a57815161134188826112e4565b975061134c836112fc565b92505060018101905061132d565b5085935050505092915050565b6000610140820190508181036000830152611382818d611164565b90508181036020830152611396818c611234565b90506113a5604083018b610cca565b6113b2606083018a6110b6565b81810360808301526113c48189611234565b905081810360a08301526113d88188611309565b90506113e760c0830187610cca565b6113f460e0830186610cca565b611402610100830185610cca565b611410610120830184610cca565b9b9a5050505050505050505050565b7f596f7572206964656e646974792070726f6f66206973206e6f742076616c6964600082015250565b6000611455602083611118565b91506114608261141f565b602082019050919050565b6000602082019050818103600083015261148481611448565b9050919050565b7f4e487b7100000000000000000000000000000000000000000000000000000000600052601160045260246000fd5b60006114c582610cc0565b91507fffffffffffffffffffffffffffffffffffffffffffffffffffffffffffffffff82036114f7576114f661148b565b5b600182019050919050565b600082905092915050565b7f4e487b7100000000000000000000000000000000000000000000000000000000600052604160045260246000fd5b7f4e487b7100000000000000000000000000000000000000000000000000000000600052602260045260246000fd5b6000600282049050600182168061158357607f821691505b6020821081036115965761159561153c565b5b50919050565b60008190508160005260206000209050919050565b60006020601f8301049050919050565b600082821b905092915050565b6000600883026115fe7fffffffffffffffffffffffffffffffffffffffffffffffffffffffffffffffff826115c1565b61160886836115c1565b95508019841693508086168417925050509392505050565b6000819050919050565b600061164561164061163b84610cc0565b611620565b610cc0565b9050919050565b6000819050919050565b61165f8361162a565b61167361166b8261164c565b8484546115ce565b825550505050565b600090565b61168861167b565b611693818484611656565b505050565b5b818110156116b7576116ac600082611680565b600181019050611699565b5050565b601f8211156116fc576116cd8161159c565b6116d6846115b1565b810160208510156116e5578190505b6116f96116f1856115b1565b830182611698565b50505b505050565b600082821c905092915050565b600061171f60001984600802611701565b1980831691505092915050565b6000611738838361170e565b9150826002028217905092915050565b6117528383611502565b67ffffffffffffffff81111561176b5761176a61150d565b5b611775825461156b565b6117808282856116bb565b6000601f8311600181146117af576000841561179d578287013590505b6117a7858261172c565b86555061180f565b601f1984166117bd8661159c565b60005b828110156117e5578489013582556001820191506020850194506020810190506117c0565b8683101561180257848901356117fe601f89168261170e565b8355505b6001600288020188555050505b50505050505050565b7f4e487b7100000000000000000000000000000000000000000000000000000000600052603260045260246000fd5b600080fd5b600080fd5b600080fd5b6000808335600160200384360303811261187357611872611847565b5b80840192508235915067ffffffffffffffff8211156118955761189461184c565b5b6020830192506001820236038313156118b1576118b0611851565b5b509250929050565b7f496e76616c6964206d6564696120696e64657800000000000000000000000000600082015250565b60006118ef601383611118565b91506118fa826118b9565b602082019050919050565b6000602082019050818103600083015261191e816118e2565b9050919050565b7f596f75206861766520616c726561647920766f74656400000000000000000000600082015250565b600061195b601683611118565b915061196682611925565b602082019050919050565b6000602082019050818103600083015261198a8161194e565b9050919050565b600081905092915050565b82818337600083830152505050565b60006119b78385611991565b93506119c483858461199c565b82840190509392505050565b60006119dd8284866119ab565b91508190509392505050565b60008190508160005260206000209050919050565b60008154611a0b8161156b565b611a158186611991565b94506001821660008114611a305760018114611a4557611a78565b60ff1983168652811515820286019350611a78565b611a4e856119e9565b60005b83811015611a7057815481890152600182019150602081019050611a51565b838801955050505b50505092915050565b6000611a8d82846119fe565b915081905092915050565b82818337505050565b611aad60408383611a98565b5050565b600060029050919050565b600081905092915050565b6000819050919050565b611add60408383611a98565b5050565b6000611aed8383611ad1565b60408301905092915050565b600082905092915050565b6000604082019050919050565b611b1a81611ab1565b611b248184611abc565b9250611b2f82611ac7565b8060005b83811015611b6857611b458284611af9565b611b4f8782611ae1565b9650611b5a83611b04565b925050600181019050611b33565b505050505050565b611b7d6104408383611a98565b5050565b600061054082019050611b976000830187611aa1565b611ba46040830186611b11565b611bb160c0830185611aa1565b611bbf610100830184611b70565b95945050505050565b600081519050611bd781610d6f565b92915050565b600060208284031215611bf357611bf2610cf4565b5b6000611c0184828501611bc8565b9150509291505056fea2646970667358221220207bf25990f22e12d08c5c422fba521665678575e8c80b6ab59374aac128b4f864736f6c63430008130033",
  "linkReferences": {},
  "deployedLinkReferences": {}
}