{
  "_format": "hh-sol-artifact-1",
  "contractName": "DeMedia",
  "sourceName": "contracts/DeMedia.sol",
  "abi": [
    {
      "inputs": [
        {
          "internalType": "address",
          "name": "_verifierAddr",
          "type": "address"
        }
      ],
      "stateMutability": "nonpayable",
      "type": "constructor"
    },
    {
      "anonymous": false,
      "inputs": [
        {
          "indexed": true,
          "internalType": "address",
          "name": "_from",
          "type": "address"
        },
        {
          "indexed": true,
          "internalType": "uint256",
          "name": "_mediaIndex",
          "type": "uint256"
        }
      ],
      "name": "Answered",
      "type": "event"
    },
    {
      "anonymous": false,
      "inputs": [
        {
          "indexed": true,
          "internalType": "address",
          "name": "_from",
          "type": "address"
        },
        {
          "indexed": true,
          "internalType": "uint256",
          "name": "_mediaIndex",
          "type": "uint256"
        }
      ],
      "name": "Created",
      "type": "event"
    },
    {
      "inputs": [
        {
          "internalType": "string[]",
          "name": "media",
          "type": "string[]"
        },
        {
          "internalType": "string[]",
          "name": "polls",
          "type": "string[]"
        },
        {
          "internalType": "uint256",
          "name": "flag",
          "type": "uint256"
        },
        {
          "internalType": "string[]",
          "name": "tags",
          "type": "string[]"
        },
        {
          "internalType": "uint256[2]",
          "name": "_pA",
          "type": "uint256[2]"
        },
        {
          "internalType": "uint256[2][2]",
          "name": "_pB",
          "type": "uint256[2][2]"
        },
        {
          "internalType": "uint256[2]",
          "name": "_pC",
          "type": "uint256[2]"
        },
        {
          "internalType": "uint256[34]",
          "name": "_pubSignals",
          "type": "uint256[34]"
        }
      ],
      "name": "addMedia",
      "outputs": [],
      "stateMutability": "nonpayable",
      "type": "function"
    },
    {
      "inputs": [],
      "name": "anonAadhaarVerifierAddr",
      "outputs": [
        {
          "internalType": "address",
          "name": "",
          "type": "address"
        }
      ],
      "stateMutability": "view",
      "type": "function"
    },
    {
      "inputs": [
        {
          "internalType": "uint256",
          "name": "mediaIndex",
          "type": "uint256"
        }
      ],
      "name": "getMedia",
      "outputs": [
        {
          "internalType": "string",
          "name": "",
          "type": "string"
        },
        {
          "internalType": "string[]",
          "name": "",
          "type": "string[]"
        },
        {
          "internalType": "uint256",
          "name": "",
          "type": "uint256"
        },
        {
          "internalType": "bool",
          "name": "",
          "type": "bool"
        },
        {
          "internalType": "string[]",
          "name": "",
          "type": "string[]"
        },
        {
          "internalType": "uint256[]",
          "name": "",
          "type": "uint256[]"
        },
        {
          "internalType": "uint256",
          "name": "",
          "type": "uint256"
        },
        {
          "internalType": "uint256",
          "name": "",
          "type": "uint256"
        },
        {
          "internalType": "uint256",
          "name": "",
          "type": "uint256"
        },
        {
          "internalType": "uint256",
          "name": "",
          "type": "uint256"
        }
      ],
      "stateMutability": "view",
      "type": "function"
    },
    {
      "inputs": [],
      "name": "getMediaCount",
      "outputs": [
        {
          "internalType": "uint256",
          "name": "",
          "type": "uint256"
        }
      ],
      "stateMutability": "view",
      "type": "function"
    },
    {
      "inputs": [],
      "name": "mediaCounter",
      "outputs": [
        {
          "internalType": "uint256",
          "name": "",
          "type": "uint256"
        }
      ],
      "stateMutability": "view",
      "type": "function"
    },
    {
      "inputs": [
        {
          "internalType": "uint256",
          "name": "mediaIndex",
          "type": "uint256"
        },
        {
          "internalType": "string",
          "name": "response",
          "type": "string"
        },
        {
          "internalType": "string",
          "name": "poll",
          "type": "string"
        },
        {
          "internalType": "uint256[2]",
          "name": "_pA",
          "type": "uint256[2]"
        },
        {
          "internalType": "uint256[2][2]",
          "name": "_pB",
          "type": "uint256[2][2]"
        },
        {
          "internalType": "uint256[2]",
          "name": "_pC",
          "type": "uint256[2]"
        },
        {
          "internalType": "uint256[34]",
          "name": "_pubSignals",
          "type": "uint256[34]"
        }
      ],
      "name": "responseOnMedia",
      "outputs": [],
      "stateMutability": "nonpayable",
      "type": "function"
    },
    {
      "inputs": [
        {
          "internalType": "uint256[2]",
          "name": "_pA",
          "type": "uint256[2]"
        },
        {
          "internalType": "uint256[2][2]",
          "name": "_pB",
          "type": "uint256[2][2]"
        },
        {
          "internalType": "uint256[2]",
          "name": "_pC",
          "type": "uint256[2]"
        },
        {
          "internalType": "uint256[34]",
          "name": "_pubSignals",
          "type": "uint256[34]"
        }
      ],
      "name": "verify",
      "outputs": [
        {
          "internalType": "bool",
          "name": "",
          "type": "bool"
        }
      ],
      "stateMutability": "view",
      "type": "function"
    }
  ],
  "bytecode": "0x60806040523480156200001157600080fd5b5060405162001eb538038062001eb58339818101604052810190620000379190620000f0565b806000806101000a81548173ffffffffffffffffffffffffffffffffffffffff021916908373ffffffffffffffffffffffffffffffffffffffff16021790555060006001819055505062000122565b600080fd5b600073ffffffffffffffffffffffffffffffffffffffff82169050919050565b6000620000b8826200008b565b9050919050565b620000ca81620000ab565b8114620000d657600080fd5b50565b600081519050620000ea81620000bf565b92915050565b60006020828403121562000109576200010862000086565b5b60006200011984828501620000d9565b91505092915050565b611d8380620001326000396000f3fe608060405234801561001057600080fd5b506004361061007d5760003560e01c8063469e2f8e1161005b578063469e2f8e146100dc5780636d0ea222146100f8578063c912432314610114578063dfa2ed6a146101445761007d565b80630dbffbcd1461008257806329976be8146100a057806331440c30146100be575b600080fd5b61008a61017d565b6040516100979190610dc8565b60405180910390f35b6100a86101a1565b6040516100b59190610dfc565b60405180910390f35b6100c66101a7565b6040516100d39190610dfc565b60405180910390f35b6100f660048036038101906100f19190610f18565b6101b1565b005b610112600480360381019061010d9190611088565b610440565b005b61012e6004803603810190610129919061116d565b610924565b60405161013b91906111f1565b60405180910390f35b61015e6004803603810190610159919061120c565b6109d1565b6040516101749a99989796959493929190611493565b60405180910390f35b60008054906101000a900473ffffffffffffffffffffffffffffffffffffffff1681565b60015481565b6000600154905090565b6101bd84848484610924565b6101fc576040517f08c379a00000000000000000000000000000000000000000000000000000000081526004016101f390611597565b60405180910390fd5b6001600081548092919061020f906115e6565b91905055508a8a60008181106102285761022761162e565b5b905060200281019061023a919061166c565b600360006001548152602001908152602001600020600001918261025f929190611915565b50866003600060015481526020019081526020016000206002018190555060005b86869050811015610315576003600060015481526020019081526020016000206001018787838181106102b6576102b561162e565b5b90506020028101906102c8919061166c565b90918060018154018082558091505060019003906000526020600020016000909192909192909192909192509182610301929190611915565b50808061030d906115e6565b915050610280565b5060008989905011156103ed57600160036000600154815260200190815260200160002060070160006101000a81548160ff02191690831515021790555060005b898990508110156103eb576003600060015481526020019081526020016000206008018a8a8381811061038c5761038b61162e565b5b905060200281019061039e919061166c565b909180600181540180825580915050600190039060005260206000200160009091929091929091929091925091826103d7929190611915565b5080806103e3906115e6565b915050610356565b505b6001543373ffffffffffffffffffffffffffffffffffffffff167f0ce3610e89a4bb9ec9359763f99110ed52a4abaea0b62028a1637e242ca2768b60405160405180910390a35050505050505050505050565b600154891115610485576040517f08c379a000000000000000000000000000000000000000000000000000000000815260040161047c90611a31565b60405180910390fd5b600460008a81526020019081526020016000206000826000602281106104ae576104ad61162e565b5b6020020135815260200190815260200160002060009054906101000a900460ff161561050f576040517f08c379a000000000000000000000000000000000000000000000000000000000815260040161050690611a9d565b60405180910390fd5b61051b84848484610924565b61055a576040517f08c379a000000000000000000000000000000000000000000000000000000000815260040161055190611597565b60405180910390fd5b600360008a81526020019081526020016000206006016000815480929190610581906115e6565b9190505550600360008a815260200190815260200160002060070160009054906101000a900460ff161561069c576000600190505b600360008b81526020019081526020016000206008018054905081116106965786866040516105e6929190611afc565b6040518091039020600360008c815260200190815260200160002060080182815481106106165761061561162e565b5b9060005260206000200160405161062d9190611bad565b60405180910390200361068357600360008b815260200190815260200160002060090181815481106106625761066161162e565b5b90600052602060002001600081548092919061067d906115e6565b91905055505b808061068e906115e6565b9150506105b6565b5061083c565b6040518060400160405280600381526020017f79657300000000000000000000000000000000000000000000000000000000008152508051906020012088886040516106e9929190611afc565b60405180910390200361072757600360008a8152602001908152602001600020600301600081548092919061071d906115e6565b919050555061083b565b6040518060400160405280600281526020017f6e6f000000000000000000000000000000000000000000000000000000000000815250805190602001208888604051610774929190611afc565b6040518091039020036107b257600360008a815260200190815260200160002060040160008154809291906107a8906115e6565b919050555061083a565b6040518060400160405280600781526020017f6162737461696e000000000000000000000000000000000000000000000000008152508051906020012088886040516107ff929190611afc565b60405180910390200361083957600360008a81526020019081526020016000206005016000815480929190610833906115e6565b91905055505b5b5b5b6001600460008b81526020019081526020016000206000836000602281106108675761086661162e565b5b6020020135815260200190815260200160002060006101000a81548160ff02191690831515021790555060026000826000602281106108a9576108a861162e565b5b6020020135815260200190815260200160002060000160008154809291906108d0906115e6565b9190505550883373ffffffffffffffffffffffffffffffffffffffff167f15ed2488ad15febdd998af0661945b84b4df9f0b7f44e62670f835cb61ac4fbc60405160405180910390a3505050505050505050565b60008060009054906101000a900473ffffffffffffffffffffffffffffffffffffffff1673ffffffffffffffffffffffffffffffffffffffff16638525a61d868686866040518563ffffffff1660e01b81526004016109869493929190611cad565b602060405180830381865afa1580156109a3573d6000803e3d6000fd5b505050506040513d601f19601f820116820180604052508101906109c79190611d20565b9050949350505050565b6060806000806060806000806000806001548b1115610a25576040517f08c379a0000000000000000000000000000000000000000000000000000000008152600401610a1c90611a31565b60405180910390fd5b6000600360008d815260200190815260200160002060405180610140016040529081600082018054610a5690611738565b80601f0160208091040260200160405190810160405280929190818152602001828054610a8290611738565b8015610acf5780601f10610aa457610100808354040283529160200191610acf565b820191906000526020600020905b815481529060010190602001808311610ab257829003601f168201915b5050505050815260200160018201805480602002602001604051908101604052809291908181526020016000905b82821015610ba9578382906000526020600020018054610b1c90611738565b80601f0160208091040260200160405190810160405280929190818152602001828054610b4890611738565b8015610b955780601f10610b6a57610100808354040283529160200191610b95565b820191906000526020600020905b815481529060010190602001808311610b7857829003601f168201915b505050505081526020019060010190610afd565b50505050815260200160028201548152602001600382015481526020016004820154815260200160058201548152602001600682015481526020016007820160009054906101000a900460ff1615151515815260200160088201805480602002602001604051908101604052809291908181526020016000905b82821015610ccf578382906000526020600020018054610c4290611738565b80601f0160208091040260200160405190810160405280929190818152602001828054610c6e90611738565b8015610cbb5780601f10610c9057610100808354040283529160200191610cbb565b820191906000526020600020905b815481529060010190602001808311610c9e57829003601f168201915b505050505081526020019060010190610c23565b50505050815260200160098201805480602002602001604051908101604052809291908181526020018280548015610d2657602002820191906000526020600020905b815481526020019060010190808311610d12575b50505050508152505090508060000151816020015182604001518360e00151846101000151856101200151866060015187608001518860a001518960c001519a509a509a509a509a509a509a509a509a509a50509193959799509193959799565b600073ffffffffffffffffffffffffffffffffffffffff82169050919050565b6000610db282610d87565b9050919050565b610dc281610da7565b82525050565b6000602082019050610ddd6000830184610db9565b92915050565b6000819050919050565b610df681610de3565b82525050565b6000602082019050610e116000830184610ded565b92915050565b600080fd5b600080fd5b600080fd5b600080fd5b600080fd5b60008083601f840112610e4657610e45610e21565b5b8235905067ffffffffffffffff811115610e6357610e62610e26565b5b602083019150836020820283011115610e7f57610e7e610e2b565b5b9250929050565b610e8f81610de3565b8114610e9a57600080fd5b50565b600081359050610eac81610e86565b92915050565b600081905082602060020282011115610ece57610ecd610e2b565b5b92915050565b600081905082604060020282011115610ef057610eef610e2b565b5b92915050565b600081905082602060220282011115610f1257610f11610e2b565b5b92915050565b60008060008060008060008060008060006105c08c8e031215610f3e57610f3d610e17565b5b60008c013567ffffffffffffffff811115610f5c57610f5b610e1c565b5b610f688e828f01610e30565b9b509b505060208c013567ffffffffffffffff811115610f8b57610f8a610e1c565b5b610f978e828f01610e30565b99509950506040610faa8e828f01610e9d565b97505060608c013567ffffffffffffffff811115610fcb57610fca610e1c565b5b610fd78e828f01610e30565b96509650506080610fea8e828f01610eb2565b94505060c0610ffb8e828f01610ed4565b93505061014061100d8e828f01610eb2565b92505061018061101f8e828f01610ef6565b9150509295989b509295989b9093969950565b60008083601f84011261104857611047610e21565b5b8235905067ffffffffffffffff81111561106557611064610e26565b5b60208301915083600182028301111561108157611080610e2b565b5b9250929050565b60008060008060008060008060006105a08a8c0312156110ab576110aa610e17565b5b60006110b98c828d01610e9d565b99505060208a013567ffffffffffffffff8111156110da576110d9610e1c565b5b6110e68c828d01611032565b985098505060408a013567ffffffffffffffff81111561110957611108610e1c565b5b6111158c828d01611032565b965096505060606111288c828d01610eb2565b94505060a06111398c828d01610ed4565b93505061012061114b8c828d01610eb2565b92505061016061115d8c828d01610ef6565b9150509295985092959850929598565b600080600080610540858703121561118857611187610e17565b5b600061119687828801610eb2565b94505060406111a787828801610ed4565b93505060c06111b887828801610eb2565b9250506101006111ca87828801610ef6565b91505092959194509250565b60008115159050919050565b6111eb816111d6565b82525050565b600060208201905061120660008301846111e2565b92915050565b60006020828403121561122257611221610e17565b5b600061123084828501610e9d565b91505092915050565b600081519050919050565b600082825260208201905092915050565b60005b83811015611273578082015181840152602081019050611258565b60008484015250505050565b6000601f19601f8301169050919050565b600061129b82611239565b6112a58185611244565b93506112b5818560208601611255565b6112be8161127f565b840191505092915050565b600081519050919050565b600082825260208201905092915050565b6000819050602082019050919050565b600082825260208201905092915050565b600061131182611239565b61131b81856112f5565b935061132b818560208601611255565b6113348161127f565b840191505092915050565b600061134b8383611306565b905092915050565b6000602082019050919050565b600061136b826112c9565b61137581856112d4565b935083602082028501611387856112e5565b8060005b858110156113c357848403895281516113a4858261133f565b94506113af83611353565b925060208a0199505060018101905061138b565b50829750879550505050505092915050565b600081519050919050565b600082825260208201905092915050565b6000819050602082019050919050565b61140a81610de3565b82525050565b600061141c8383611401565b60208301905092915050565b6000602082019050919050565b6000611440826113d5565b61144a81856113e0565b9350611455836113f1565b8060005b8381101561148657815161146d8882611410565b975061147883611428565b925050600181019050611459565b5085935050505092915050565b60006101408201905081810360008301526114ae818d611290565b905081810360208301526114c2818c611360565b90506114d1604083018b610ded565b6114de606083018a6111e2565b81810360808301526114f08189611360565b905081810360a08301526115048188611435565b905061151360c0830187610ded565b61152060e0830186610ded565b61152e610100830185610ded565b61153c610120830184610ded565b9b9a5050505050505050505050565b7f596f7572206964656e646974792070726f6f66206973206e6f742076616c6964600082015250565b6000611581602083611244565b915061158c8261154b565b602082019050919050565b600060208201905081810360008301526115b081611574565b9050919050565b7f4e487b7100000000000000000000000000000000000000000000000000000000600052601160045260246000fd5b60006115f182610de3565b91507fffffffffffffffffffffffffffffffffffffffffffffffffffffffffffffffff8203611623576116226115b7565b5b600182019050919050565b7f4e487b7100000000000000000000000000000000000000000000000000000000600052603260045260246000fd5b600080fd5b600080fd5b600080fd5b600080833560016020038436030381126116895761168861165d565b5b80840192508235915067ffffffffffffffff8211156116ab576116aa611662565b5b6020830192506001820236038313156116c7576116c6611667565b5b509250929050565b600082905092915050565b7f4e487b7100000000000000000000000000000000000000000000000000000000600052604160045260246000fd5b7f4e487b7100000000000000000000000000000000000000000000000000000000600052602260045260246000fd5b6000600282049050600182168061175057607f821691505b60208210810361176357611762611709565b5b50919050565b60008190508160005260206000209050919050565b60006020601f8301049050919050565b600082821b905092915050565b6000600883026117cb7fffffffffffffffffffffffffffffffffffffffffffffffffffffffffffffffff8261178e565b6117d5868361178e565b95508019841693508086168417925050509392505050565b6000819050919050565b600061181261180d61180884610de3565b6117ed565b610de3565b9050919050565b6000819050919050565b61182c836117f7565b61184061183882611819565b84845461179b565b825550505050565b600090565b611855611848565b611860818484611823565b505050565b5b818110156118845761187960008261184d565b600181019050611866565b5050565b601f8211156118c95761189a81611769565b6118a38461177e565b810160208510156118b2578190505b6118c66118be8561177e565b830182611865565b50505b505050565b600082821c905092915050565b60006118ec600019846008026118ce565b1980831691505092915050565b600061190583836118db565b9150826002028217905092915050565b61191f83836116cf565b67ffffffffffffffff811115611938576119376116da565b5b6119428254611738565b61194d828285611888565b6000601f83116001811461197c576000841561196a578287013590505b61197485826118f9565b8655506119dc565b601f19841661198a86611769565b60005b828110156119b25784890135825560018201915060208501945060208101905061198d565b868310156119cf57848901356119cb601f8916826118db565b8355505b6001600288020188555050505b50505050505050565b7f496e76616c6964206d6564696120696e64657800000000000000000000000000600082015250565b6000611a1b601383611244565b9150611a26826119e5565b602082019050919050565b60006020820190508181036000830152611a4a81611a0e565b9050919050565b7f596f75206861766520616c726561647920766f74656400000000000000000000600082015250565b6000611a87601683611244565b9150611a9282611a51565b602082019050919050565b60006020820190508181036000830152611ab681611a7a565b9050919050565b600081905092915050565b82818337600083830152505050565b6000611ae38385611abd565b9350611af0838584611ac8565b82840190509392505050565b6000611b09828486611ad7565b91508190509392505050565b60008190508160005260206000209050919050565b60008154611b3781611738565b611b418186611abd565b94506001821660008114611b5c5760018114611b7157611ba4565b60ff1983168652811515820286019350611ba4565b611b7a85611b15565b60005b83811015611b9c57815481890152600182019150602081019050611b7d565b838801955050505b50505092915050565b6000611bb98284611b2a565b915081905092915050565b82818337505050565b611bd960408383611bc4565b5050565b600060029050919050565b600081905092915050565b6000819050919050565b611c0960408383611bc4565b5050565b6000611c198383611bfd565b60408301905092915050565b600082905092915050565b6000604082019050919050565b611c4681611bdd565b611c508184611be8565b9250611c5b82611bf3565b8060005b83811015611c9457611c718284611c25565b611c7b8782611c0d565b9650611c8683611c30565b925050600181019050611c5f565b505050505050565b611ca96104408383611bc4565b5050565b600061054082019050611cc36000830187611bcd565b611cd06040830186611c3d565b611cdd60c0830185611bcd565b611ceb610100830184611c9c565b95945050505050565b611cfd816111d6565b8114611d0857600080fd5b50565b600081519050611d1a81611cf4565b92915050565b600060208284031215611d3657611d35610e17565b5b6000611d4484828501611d0b565b9150509291505056fea26469706673582212205efa54a6c449f72cc19d3ec4aef59d2b6321f4d9dcf14e773770d275b45c979b64736f6c63430008130033",
  "linkReferences": {},
  "deployedLinkReferences": {}
}