{
  "_format": "hh-sol-artifact-1",
  "contractName": "DeMedia",
  "sourceName": "contracts/DeMedia.sol",
  "abi": [
    {
      "inputs": [
        {
          "internalType": "address",
          "name": "_verifierAddr",
          "type": "address"
        }
      ],
      "stateMutability": "nonpayable",
      "type": "constructor"
    },
    {
      "anonymous": false,
      "inputs": [
        {
          "indexed": true,
          "internalType": "address",
          "name": "_from",
          "type": "address"
        },
        {
          "indexed": true,
          "internalType": "uint256",
          "name": "_mediaIndex",
          "type": "uint256"
        }
      ],
      "name": "Answered",
      "type": "event"
    },
    {
      "anonymous": false,
      "inputs": [
        {
          "indexed": true,
          "internalType": "address",
          "name": "_from",
          "type": "address"
        },
        {
          "indexed": true,
          "internalType": "uint256",
          "name": "_mediaIndex",
          "type": "uint256"
        }
      ],
      "name": "Created",
      "type": "event"
    },
    {
      "inputs": [
        {
          "internalType": "string[]",
          "name": "media",
          "type": "string[]"
        },
        {
          "internalType": "string[]",
          "name": "polls",
          "type": "string[]"
        },
        {
          "internalType": "uint256",
          "name": "flag",
          "type": "uint256"
        },
        {
          "internalType": "string[]",
          "name": "tags",
          "type": "string[]"
        },
        {
          "internalType": "uint256[2]",
          "name": "_pA",
          "type": "uint256[2]"
        },
        {
          "internalType": "uint256[2][2]",
          "name": "_pB",
          "type": "uint256[2][2]"
        },
        {
          "internalType": "uint256[2]",
          "name": "_pC",
          "type": "uint256[2]"
        },
        {
          "internalType": "uint256[34]",
          "name": "_pubSignals",
          "type": "uint256[34]"
        }
      ],
      "name": "addMedia",
      "outputs": [],
      "stateMutability": "nonpayable",
      "type": "function"
    },
    {
      "inputs": [],
      "name": "anonAadhaarVerifierAddr",
      "outputs": [
        {
          "internalType": "address",
          "name": "",
          "type": "address"
        }
      ],
      "stateMutability": "view",
      "type": "function"
    },
    {
      "inputs": [
        {
          "internalType": "uint256",
          "name": "mediaIndex",
          "type": "uint256"
        }
      ],
      "name": "getMedia",
      "outputs": [
        {
          "internalType": "string",
          "name": "",
          "type": "string"
        },
        {
          "internalType": "string[]",
          "name": "",
          "type": "string[]"
        },
        {
          "internalType": "uint256",
          "name": "",
          "type": "uint256"
        },
        {
          "internalType": "bool",
          "name": "",
          "type": "bool"
        },
        {
          "internalType": "string[]",
          "name": "",
          "type": "string[]"
        },
        {
          "internalType": "uint256[]",
          "name": "",
          "type": "uint256[]"
        },
        {
          "internalType": "uint256",
          "name": "",
          "type": "uint256"
        },
        {
          "internalType": "uint256",
          "name": "",
          "type": "uint256"
        },
        {
          "internalType": "uint256",
          "name": "",
          "type": "uint256"
        },
        {
          "internalType": "uint256",
          "name": "",
          "type": "uint256"
        }
      ],
      "stateMutability": "view",
      "type": "function"
    },
    {
      "inputs": [],
      "name": "getMediaCount",
      "outputs": [
        {
          "internalType": "uint256",
          "name": "",
          "type": "uint256"
        }
      ],
      "stateMutability": "view",
      "type": "function"
    },
    {
      "inputs": [],
      "name": "mediaCounter",
      "outputs": [
        {
          "internalType": "uint256",
          "name": "",
          "type": "uint256"
        }
      ],
      "stateMutability": "view",
      "type": "function"
    },
    {
      "inputs": [
        {
          "internalType": "uint256",
          "name": "mediaIndex",
          "type": "uint256"
        },
        {
          "internalType": "string",
          "name": "response",
          "type": "string"
        },
        {
          "internalType": "string",
          "name": "poll",
          "type": "string"
        },
        {
          "internalType": "uint256[2]",
          "name": "_pA",
          "type": "uint256[2]"
        },
        {
          "internalType": "uint256[2][2]",
          "name": "_pB",
          "type": "uint256[2][2]"
        },
        {
          "internalType": "uint256[2]",
          "name": "_pC",
          "type": "uint256[2]"
        },
        {
          "internalType": "uint256[34]",
          "name": "_pubSignals",
          "type": "uint256[34]"
        }
      ],
      "name": "responseOnMedia",
      "outputs": [],
      "stateMutability": "nonpayable",
      "type": "function"
    },
    {
      "inputs": [
        {
          "internalType": "uint256[2]",
          "name": "_pA",
          "type": "uint256[2]"
        },
        {
          "internalType": "uint256[2][2]",
          "name": "_pB",
          "type": "uint256[2][2]"
        },
        {
          "internalType": "uint256[2]",
          "name": "_pC",
          "type": "uint256[2]"
        },
        {
          "internalType": "uint256[34]",
          "name": "_pubSignals",
          "type": "uint256[34]"
        }
      ],
      "name": "verify",
      "outputs": [
        {
          "internalType": "bool",
          "name": "",
          "type": "bool"
        }
      ],
      "stateMutability": "view",
      "type": "function"
    }
  ],
  "bytecode": "0x60806040523480156200001157600080fd5b5060405162001f4838038062001f488339818101604052810190620000379190620000f0565b806000806101000a81548173ffffffffffffffffffffffffffffffffffffffff021916908373ffffffffffffffffffffffffffffffffffffffff16021790555060006001819055505062000122565b600080fd5b600073ffffffffffffffffffffffffffffffffffffffff82169050919050565b6000620000b8826200008b565b9050919050565b620000ca81620000ab565b8114620000d657600080fd5b50565b600081519050620000ea81620000bf565b92915050565b60006020828403121562000109576200010862000086565b5b60006200011984828501620000d9565b91505092915050565b611e1680620001326000396000f3fe608060405234801561001057600080fd5b506004361061007d5760003560e01c8063469e2f8e1161005b578063469e2f8e146100dc5780636d0ea222146100f8578063c912432314610114578063dfa2ed6a146101445761007d565b80630dbffbcd1461008257806329976be8146100a057806331440c30146100be575b600080fd5b61008a61017d565b6040516100979190610e5b565b60405180910390f35b6100a86101a1565b6040516100b59190610e8f565b60405180910390f35b6100c66101a7565b6040516100d39190610e8f565b60405180910390f35b6100f660048036038101906100f19190610fab565b6101b1565b005b610112600480360381019061010d919061111b565b610440565b005b61012e60048036038101906101299190611200565b610924565b60405161013b9190611284565b60405180910390f35b61015e6004803603810190610159919061129f565b6109d1565b6040516101749a99989796959493929190611526565b60405180910390f35b60008054906101000a900473ffffffffffffffffffffffffffffffffffffffff1681565b60015481565b6000600154905090565b6101bd84848484610924565b6101fc576040517f08c379a00000000000000000000000000000000000000000000000000000000081526004016101f39061162a565b60405180910390fd5b6001600081548092919061020f90611679565b91905055508a8a6000818110610228576102276116c1565b5b905060200281019061023a91906116ff565b600360006001548152602001908152602001600020600101918261025f9291906119a8565b50866003600060015481526020019081526020016000206003018190555060005b86869050811015610315576003600060015481526020019081526020016000206002018787838181106102b6576102b56116c1565b5b90506020028101906102c891906116ff565b909180600181540180825580915050600190039060005260206000200160009091929091929091929091925091826103019291906119a8565b50808061030d90611679565b915050610280565b5060008989905011156103ed57600160036000600154815260200190815260200160002060080160006101000a81548160ff02191690831515021790555060005b898990508110156103eb576003600060015481526020019081526020016000206009018a8a8381811061038c5761038b6116c1565b5b905060200281019061039e91906116ff565b909180600181540180825580915050600190039060005260206000200160009091929091929091929091925091826103d79291906119a8565b5080806103e390611679565b915050610356565b505b6001543373ffffffffffffffffffffffffffffffffffffffff167f0ce3610e89a4bb9ec9359763f99110ed52a4abaea0b62028a1637e242ca2768b60405160405180910390a35050505050505050505050565b600154891115610485576040517f08c379a000000000000000000000000000000000000000000000000000000000815260040161047c90611ac4565b60405180910390fd5b600460008a81526020019081526020016000206000826000602281106104ae576104ad6116c1565b5b6020020135815260200190815260200160002060009054906101000a900460ff161561050f576040517f08c379a000000000000000000000000000000000000000000000000000000000815260040161050690611b30565b60405180910390fd5b61051b84848484610924565b61055a576040517f08c379a00000000000000000000000000000000000000000000000000000000081526004016105519061162a565b60405180910390fd5b600360008a8152602001908152602001600020600701600081548092919061058190611679565b9190505550600360008a815260200190815260200160002060080160009054906101000a900460ff161561069c576000600190505b600360008b81526020019081526020016000206009018054905081116106965786866040516105e6929190611b8f565b6040518091039020600360008c81526020019081526020016000206009018281548110610616576106156116c1565b5b9060005260206000200160405161062d9190611c40565b60405180910390200361068357600360008b8152602001908152602001600020600a018181548110610662576106616116c1565b5b90600052602060002001600081548092919061067d90611679565b91905055505b808061068e90611679565b9150506105b6565b5061083c565b6040518060400160405280600381526020017f79657300000000000000000000000000000000000000000000000000000000008152508051906020012088886040516106e9929190611b8f565b60405180910390200361072757600360008a8152602001908152602001600020600401600081548092919061071d90611679565b919050555061083b565b6040518060400160405280600281526020017f6e6f000000000000000000000000000000000000000000000000000000000000815250805190602001208888604051610774929190611b8f565b6040518091039020036107b257600360008a815260200190815260200160002060050160008154809291906107a890611679565b919050555061083a565b6040518060400160405280600781526020017f6162737461696e000000000000000000000000000000000000000000000000008152508051906020012088886040516107ff929190611b8f565b60405180910390200361083957600360008a8152602001908152602001600020600601600081548092919061083390611679565b91905055505b5b5b5b6001600460008b8152602001908152602001600020600083600060228110610867576108666116c1565b5b6020020135815260200190815260200160002060006101000a81548160ff02191690831515021790555060026000826000602281106108a9576108a86116c1565b5b6020020135815260200190815260200160002060000160008154809291906108d090611679565b9190505550883373ffffffffffffffffffffffffffffffffffffffff167f15ed2488ad15febdd998af0661945b84b4df9f0b7f44e62670f835cb61ac4fbc60405160405180910390a3505050505050505050565b60008060009054906101000a900473ffffffffffffffffffffffffffffffffffffffff1673ffffffffffffffffffffffffffffffffffffffff16638525a61d868686866040518563ffffffff1660e01b81526004016109869493929190611d40565b602060405180830381865afa1580156109a3573d6000803e3d6000fd5b505050506040513d601f19601f820116820180604052508101906109c79190611db3565b9050949350505050565b6060806000806060806000806000806001548b1115610a25576040517f08c379a0000000000000000000000000000000000000000000000000000000008152600401610a1c90611ac4565b60405180910390fd5b6000600360008d815260200190815260200160002060405180610160016040529081600082018054610a56906117cb565b80601f0160208091040260200160405190810160405280929190818152602001828054610a82906117cb565b8015610acf5780601f10610aa457610100808354040283529160200191610acf565b820191906000526020600020905b815481529060010190602001808311610ab257829003601f168201915b50505050508152602001600182018054610ae8906117cb565b80601f0160208091040260200160405190810160405280929190818152602001828054610b14906117cb565b8015610b615780601f10610b3657610100808354040283529160200191610b61565b820191906000526020600020905b815481529060010190602001808311610b4457829003601f168201915b5050505050815260200160028201805480602002602001604051908101604052809291908181526020016000905b82821015610c3b578382906000526020600020018054610bae906117cb565b80601f0160208091040260200160405190810160405280929190818152602001828054610bda906117cb565b8015610c275780601f10610bfc57610100808354040283529160200191610c27565b820191906000526020600020905b815481529060010190602001808311610c0a57829003601f168201915b505050505081526020019060010190610b8f565b50505050815260200160038201548152602001600482015481526020016005820154815260200160068201548152602001600782015481526020016008820160009054906101000a900460ff1615151515815260200160098201805480602002602001604051908101604052809291908181526020016000905b82821015610d61578382906000526020600020018054610cd4906117cb565b80601f0160208091040260200160405190810160405280929190818152602001828054610d00906117cb565b8015610d4d5780601f10610d2257610100808354040283529160200191610d4d565b820191906000526020600020905b815481529060010190602001808311610d3057829003601f168201915b505050505081526020019060010190610cb5565b505050508152602001600a8201805480602002602001604051908101604052809291908181526020018280548015610db857602002820191906000526020600020905b815481526020019060010190808311610da4575b505050505081525050905080602001518160400151826060015183610100015184610120015185610140015186608001518760a001518860c001518960e001519a509a509a509a509a509a509a509a509a509a50509193959799509193959799565b600073ffffffffffffffffffffffffffffffffffffffff82169050919050565b6000610e4582610e1a565b9050919050565b610e5581610e3a565b82525050565b6000602082019050610e706000830184610e4c565b92915050565b6000819050919050565b610e8981610e76565b82525050565b6000602082019050610ea46000830184610e80565b92915050565b600080fd5b600080fd5b600080fd5b600080fd5b600080fd5b60008083601f840112610ed957610ed8610eb4565b5b8235905067ffffffffffffffff811115610ef657610ef5610eb9565b5b602083019150836020820283011115610f1257610f11610ebe565b5b9250929050565b610f2281610e76565b8114610f2d57600080fd5b50565b600081359050610f3f81610f19565b92915050565b600081905082602060020282011115610f6157610f60610ebe565b5b92915050565b600081905082604060020282011115610f8357610f82610ebe565b5b92915050565b600081905082602060220282011115610fa557610fa4610ebe565b5b92915050565b60008060008060008060008060008060006105c08c8e031215610fd157610fd0610eaa565b5b60008c013567ffffffffffffffff811115610fef57610fee610eaf565b5b610ffb8e828f01610ec3565b9b509b505060208c013567ffffffffffffffff81111561101e5761101d610eaf565b5b61102a8e828f01610ec3565b9950995050604061103d8e828f01610f30565b97505060608c013567ffffffffffffffff81111561105e5761105d610eaf565b5b61106a8e828f01610ec3565b9650965050608061107d8e828f01610f45565b94505060c061108e8e828f01610f67565b9350506101406110a08e828f01610f45565b9250506101806110b28e828f01610f89565b9150509295989b509295989b9093969950565b60008083601f8401126110db576110da610eb4565b5b8235905067ffffffffffffffff8111156110f8576110f7610eb9565b5b60208301915083600182028301111561111457611113610ebe565b5b9250929050565b60008060008060008060008060006105a08a8c03121561113e5761113d610eaa565b5b600061114c8c828d01610f30565b99505060208a013567ffffffffffffffff81111561116d5761116c610eaf565b5b6111798c828d016110c5565b985098505060408a013567ffffffffffffffff81111561119c5761119b610eaf565b5b6111a88c828d016110c5565b965096505060606111bb8c828d01610f45565b94505060a06111cc8c828d01610f67565b9350506101206111de8c828d01610f45565b9250506101606111f08c828d01610f89565b9150509295985092959850929598565b600080600080610540858703121561121b5761121a610eaa565b5b600061122987828801610f45565b945050604061123a87828801610f67565b93505060c061124b87828801610f45565b92505061010061125d87828801610f89565b91505092959194509250565b60008115159050919050565b61127e81611269565b82525050565b60006020820190506112996000830184611275565b92915050565b6000602082840312156112b5576112b4610eaa565b5b60006112c384828501610f30565b91505092915050565b600081519050919050565b600082825260208201905092915050565b60005b838110156113065780820151818401526020810190506112eb565b60008484015250505050565b6000601f19601f8301169050919050565b600061132e826112cc565b61133881856112d7565b93506113488185602086016112e8565b61135181611312565b840191505092915050565b600081519050919050565b600082825260208201905092915050565b6000819050602082019050919050565b600082825260208201905092915050565b60006113a4826112cc565b6113ae8185611388565b93506113be8185602086016112e8565b6113c781611312565b840191505092915050565b60006113de8383611399565b905092915050565b6000602082019050919050565b60006113fe8261135c565b6114088185611367565b93508360208202850161141a85611378565b8060005b85811015611456578484038952815161143785826113d2565b9450611442836113e6565b925060208a0199505060018101905061141e565b50829750879550505050505092915050565b600081519050919050565b600082825260208201905092915050565b6000819050602082019050919050565b61149d81610e76565b82525050565b60006114af8383611494565b60208301905092915050565b6000602082019050919050565b60006114d382611468565b6114dd8185611473565b93506114e883611484565b8060005b8381101561151957815161150088826114a3565b975061150b836114bb565b9250506001810190506114ec565b5085935050505092915050565b6000610140820190508181036000830152611541818d611323565b90508181036020830152611555818c6113f3565b9050611564604083018b610e80565b611571606083018a611275565b818103608083015261158381896113f3565b905081810360a083015261159781886114c8565b90506115a660c0830187610e80565b6115b360e0830186610e80565b6115c1610100830185610e80565b6115cf610120830184610e80565b9b9a5050505050505050505050565b7f596f7572206964656e646974792070726f6f66206973206e6f742076616c6964600082015250565b60006116146020836112d7565b915061161f826115de565b602082019050919050565b6000602082019050818103600083015261164381611607565b9050919050565b7f4e487b7100000000000000000000000000000000000000000000000000000000600052601160045260246000fd5b600061168482610e76565b91507fffffffffffffffffffffffffffffffffffffffffffffffffffffffffffffffff82036116b6576116b561164a565b5b600182019050919050565b7f4e487b7100000000000000000000000000000000000000000000000000000000600052603260045260246000fd5b600080fd5b600080fd5b600080fd5b6000808335600160200384360303811261171c5761171b6116f0565b5b80840192508235915067ffffffffffffffff82111561173e5761173d6116f5565b5b60208301925060018202360383131561175a576117596116fa565b5b509250929050565b600082905092915050565b7f4e487b7100000000000000000000000000000000000000000000000000000000600052604160045260246000fd5b7f4e487b7100000000000000000000000000000000000000000000000000000000600052602260045260246000fd5b600060028204905060018216806117e357607f821691505b6020821081036117f6576117f561179c565b5b50919050565b60008190508160005260206000209050919050565b60006020601f8301049050919050565b600082821b905092915050565b60006008830261185e7fffffffffffffffffffffffffffffffffffffffffffffffffffffffffffffffff82611821565b6118688683611821565b95508019841693508086168417925050509392505050565b6000819050919050565b60006118a56118a061189b84610e76565b611880565b610e76565b9050919050565b6000819050919050565b6118bf8361188a565b6118d36118cb826118ac565b84845461182e565b825550505050565b600090565b6118e86118db565b6118f38184846118b6565b505050565b5b818110156119175761190c6000826118e0565b6001810190506118f9565b5050565b601f82111561195c5761192d816117fc565b61193684611811565b81016020851015611945578190505b61195961195185611811565b8301826118f8565b50505b505050565b600082821c905092915050565b600061197f60001984600802611961565b1980831691505092915050565b6000611998838361196e565b9150826002028217905092915050565b6119b28383611762565b67ffffffffffffffff8111156119cb576119ca61176d565b5b6119d582546117cb565b6119e082828561191b565b6000601f831160018114611a0f57600084156119fd578287013590505b611a07858261198c565b865550611a6f565b601f198416611a1d866117fc565b60005b82811015611a4557848901358255600182019150602085019450602081019050611a20565b86831015611a625784890135611a5e601f89168261196e565b8355505b6001600288020188555050505b50505050505050565b7f496e76616c6964206d6564696120696e64657800000000000000000000000000600082015250565b6000611aae6013836112d7565b9150611ab982611a78565b602082019050919050565b60006020820190508181036000830152611add81611aa1565b9050919050565b7f596f75206861766520616c726561647920766f74656400000000000000000000600082015250565b6000611b1a6016836112d7565b9150611b2582611ae4565b602082019050919050565b60006020820190508181036000830152611b4981611b0d565b9050919050565b600081905092915050565b82818337600083830152505050565b6000611b768385611b50565b9350611b83838584611b5b565b82840190509392505050565b6000611b9c828486611b6a565b91508190509392505050565b60008190508160005260206000209050919050565b60008154611bca816117cb565b611bd48186611b50565b94506001821660008114611bef5760018114611c0457611c37565b60ff1983168652811515820286019350611c37565b611c0d85611ba8565b60005b83811015611c2f57815481890152600182019150602081019050611c10565b838801955050505b50505092915050565b6000611c4c8284611bbd565b915081905092915050565b82818337505050565b611c6c60408383611c57565b5050565b600060029050919050565b600081905092915050565b6000819050919050565b611c9c60408383611c57565b5050565b6000611cac8383611c90565b60408301905092915050565b600082905092915050565b6000604082019050919050565b611cd981611c70565b611ce38184611c7b565b9250611cee82611c86565b8060005b83811015611d2757611d048284611cb8565b611d0e8782611ca0565b9650611d1983611cc3565b925050600181019050611cf2565b505050505050565b611d3c6104408383611c57565b5050565b600061054082019050611d566000830187611c60565b611d636040830186611cd0565b611d7060c0830185611c60565b611d7e610100830184611d2f565b95945050505050565b611d9081611269565b8114611d9b57600080fd5b50565b600081519050611dad81611d87565b92915050565b600060208284031215611dc957611dc8610eaa565b5b6000611dd784828501611d9e565b9150509291505056fea2646970667358221220d4a6f0afd62f49e4228d6bec3354d7a342d51d5a8e9da1bf38c731c02224ea3e64736f6c63430008130033",
  "linkReferences": {},
  "deployedLinkReferences": {}
}